:020000022000DC
:1060000000000120B18C0200D98C0200DB8C020060
:10601000DD8C0200DF8C0200E18C02000000000039
:10602000000000000000000000000000E38C0200FF
:10603000E58C020000000000E78C0200E98C020001
:106040004D8C0200EB8C0200EB8C0200EB8C02000A
:10605000EB8C0200EB8C0200A1880200EB8C0200AA
:1060600079920200D1920200EB8C0200EB8C0200CC
:10607000EB8C0200EB8C0200EB8C0200EB8C02003C
:10608000EB8C020089790200EB8C0200EB8C0200A1
:10609000297A0200EB8C0200B57F0200EB8C020033
:1060A000EB8C0200EB8C0200EB8C0200EB8C02000C
:1060B000EB8C0200EB8C02000000000000000000EE
:1060C000EB8C0200EB8C0200EB8C0200EB8C0200EC
:1060D000EB8C0200EB8C0200EB8C02000000000055
:1060E00000000000000000000000000000000000B0
:1060F00000000000000000000000000000000000A0
:10610000000000000000000000000000000000008F
:10611000000000000000000000000000000000007F
:10612000000000000000000000000000000000006F
:10613000000000000000000000000000000000005F
:10614000000000000000000000000000000000004F
:10615000000000000000000000000000000000003F
:10616000000000000000000000000000000000002F
:10617000000000000000000000000000000000001F
:10618000000000000000000000000000000000000F
:1061900000000000000000000000000000000000FF
:1061A00000000000000000000000000000000000EF
:1061B00000000000000000000000000000000000DF
:1061C00000000000000000000000000000000000CF
:1061D00000000000000000000000000000000000BF
:1061E00000000000000000000000000000000000AF
:1061F000000000000000000000000000000000009F
:1062000010B5054C237833B9044B13B10448AFF3F0
:1062100000800123237010BD2858002000000000DA
:10622000AC94020008B5034B1BB103490348AFF31C
:10623000008008BD000000002C580020AC94020033
:10624000154B002B08BF134B9D46A3F5803A002148
:106250008B460F461348144A121A03F0A8F80F4B46
:10626000002B00D098470E4B002B00D09847002001
:10627000002104000D000D48002802D00C48AFF3A7
:10628000008003F065F82000290000F029F803F0F1
:106290004BF800BF000008000000012000000000D3
:1062A0000000000028580020985F00200000000037
:1062B00000000000014B01221A7070474458002072
:1062C00004280CD14FF0A042D2F80435D94301F094
:1062D000004103F00043C2F80815C2F80C357047BE
:1062E0002DE9F0474FF0A04303224FF080454FF0D7
:1062F00000444FF000704FF08061C3F8782786B0FB
:10630000C3F80C55C3F87C27C3F80C45C3F86427C1
:10631000C3F80C05C3F86827C3F80C1502F06CFD30
:1063200008B100F03BFB002002F084FD01F046FDC7
:1063300008B100F033FB40F2666201212E4801F003
:10634000B5FA08B100F02AFB01F008FB00284FD194
:106350004FF0A0434FF08062C3F80825274D0FCDC2
:1063600001AC0FC42B682360254A2648012301A9EC
:106370008DF80D3000F08AFD08B100F00FFB2148C8
:10638000DFF888A0204F064601F03CF84FF00009E6
:106390004AF001054FF00008B8F1130F85BFC8EBB4
:1063A0008874C8EB840408EB8804C83487F800902C
:1063B000A4B222460021304600F07EFC1128F8D01D
:1063C0003B78002BFCD022460121304600F074FCC3
:1063D00058B932244FF47A40A847013CFAD108F169
:1063E0000108B8F1280FD7D1D2E700F0D7FAF0E7CB
:1063F00000F0D4FAB2E700BFF8930200DC93020089
:10640000B5620200F093020044580020009402009C
:10641000F0B5324C85B004F5836001F055F804F214
:10642000144001F051F8D4E9013703EA0702D01C07
:1064300004EB800114F8200010F0040044D003F1B4
:10644000030C0E7806F00306012E654635D0022EA9
:1064500002F1030621D004EB86010028F1D104EB00
:1064600082020133D26801923B4004EB830302F0C5
:106470000302012ADE6829D0022A23D1BDF80630A2
:106480009B090333360C05EB9305154801F028F8FA
:1064900000B16560304605B0F0BD4B880CEB93133E
:1064A00007EA0302D11C03F1030C14F8210065462E
:1064B00004EB810100F00400CFE70B88C3F38313E2
:1064C0006344EDE70026E0E7DD1CC8E7BDF80430D3
:1064D000C3F38313360C1D44D7E700BF18590020BF
:1064E0002C5D00202DE9F047C94C002384B0C4F88E
:1064F0001834BFF34F8FD4E9015605EA0602D31CC6
:1065000004EB830114F8233058071BD527680B7858
:1065100003F00303012B00F0B380022B03D14B885F
:10652000033505EB931506EA0502D4F81804D31CCD
:1065300004EB830130B9AF4240F2B08014F823304D
:106540005B07E4D404EB8202691CAB1C314033408E
:10655000D068019004EB810204EB830300F0030098
:10656000D268DB680228CDE9022305F1030700F0B9
:106570000281012800F09680D4F810543DB12B68B8
:1065800028469B689847EB681D68002DF7D104A842
:10659000002300F80D3D9F4F9F4BA568FF1A00F0A8
:1065A00045FAD4E90132D4F8008013440133A3EB57
:1065B0000803022B4FEAD70700F2DB80974E012138
:1065C000304600F069FFFFF723FF0146304600F038
:1065D00063FFD4E901322168134401335B1A022BB3
:1065E000EDD90A400332052303319DF8030044F836
:1065F0002230216000F040FA0021884800F042FF7C
:1066000080F3100008F101032B4004EB8303BFB2B9
:1066100047EA0040D86008F10206D4F80C349847E5
:106620002E4004EB860605EA08050335F06014F8F1
:1066300025307B49022262F3C50304F8253034F883
:1066400025306FF3891324F8253054F8252061F3A1
:106650009F221346012161F301036FF3820344F883
:10666000252004F8253094F820341BB90EE0FFF7FC
:1066700039FF58B1D4E900038342F8D1034607E05B
:106680000B880335C3F383131D444CE7D4E9003072
:10669000C01A18BF012004B0BDE8F087676004B0DD
:1066A000BDE8F087BDF804205E48C2F38313062BD3
:1066B00028BF062363F3891203339900ADF8042041
:1066C00000F05EFF804600283FF456AF00F09AFFCE
:1066D00000230C2201A9404600F0BAFFBDF80430A7
:1066E00013F4707F00F0B4806FF0020AAAEB050A81
:1066F0000C2506EA070103312B46042204EB810135
:10670000404600F0A5FFBDF8043007F101090AEB8F
:106710000902C3F3831393424F4605F10405E8D8F9
:10672000D4F81834002B6CD1D4F8105465B1EB6850
:106730005A7928464146002A5FD02B681B68984743
:10674000EB681D68002DF2D1404600F05FFF04A801
:10675000002300F80D3D00F069F9D4F818340BB9A6
:10676000C4F804909DF8030000F086F9D4E90030E5
:106770008EE7414635E7BDF806302A484FEA9319BF
:106780004D46502D28BF502565F38F1305F10C01A0
:10679000ADF8063000F0F4FE804600283FF4ECAE81
:1067A00026EA070A0AF1010A00F02CFF4FEA8A0ADA
:1067B00000230C2201A9404600F04AFF55453CD970
:1067C000EBB2BAF1000F31D006EA0701A3EB0A03DE
:1067D000033104EB8101DDB252460C23404600F048
:1067E00037FF2A460AF10C030F49404600F030FFFC
:1067F00009F1030907EB990992E71D68002D96D16D
:10680000A2E7404600F002FFD4E9003040E700BFB5
:1068100018590020E8940200C8940200345D00205A
:106820001094020008950200245900202A460C23E7
:106830000849404600F00CFFDAE706EA0701033199
:1068400004EB81012A460C23404600F001FFCFE70C
:10685000B94665E7245900202DE9F04383B002AB27
:10686000002203F8012DDFF8EC9007461846884611
:10687000D9F8084000F0DAF8D9E90132D9F8006017
:10688000134401339B1B022B60D809F21C450121E4
:10689000284600F001FEFFF7BBFD0146284600F048
:1068A000FBFDD9E90132D9F80010134401335B1A1A
:1068B000022BECD90A400332052303319DF807006F
:1068C00049F82230C9F8001000F0D6F8002120481D
:1068D00000F0D8FD80F31000731C234009EB830304
:1068E000000440EA1740D860B51CD9F80C3498472A
:1068F000254009EB850534400334E86019F824305D
:1069000067F3C50309F8243039F824306FF389138D
:1069100029F8243059F8242068F39F2213460121D6
:1069200061F301036FF3820349F8242009F824304E
:1069300099F820341BB906E0FFF7D4FD18B1D9E966
:1069400000329A42F8D103B0BDE8F0833146B1E796
:10695000345D002018590020044BD3E900239A42EB
:1069600001D0FFF7BFBD0020704700BF18590020BD
:1069700038B5094BD3F81044012583F820544CB1A5
:10698000E3685D71236820465B689847E3681C688C
:10699000002CF5D138BD00BF1859002000B585B0D6
:1069A00000230390194601AA44F20100CDE9013306
:1069B00000F004F805B05DF804FB00BF10B572B636
:1069C000FFF7D6FFFFF7C8FF0028FBD1104B114C93
:1069D0001149E41AE408240444F00100FFF73CFFE5
:1069E0000E4B1B68DB0700D500BE44F002000C49CB
:1069F000FFF732FFBFF34F8F0A490B4BCA6802F40F
:106A0000E0621343CB60BFF34F8F00BFFDE700BFD1
:106A1000C8940200E894020028940200F0ED00E01F
:106A20003494020000ED00E00400FA0570B4EFF3C6
:106A3000108472B60D4B9A68AAB90D490D4E012506
:106A40009D60D1F8805035401D60C1F88060D1F85C
:106A500084505D604FF0FF33C1F88430027004B998
:106A600062B670BC704701230370F8E7805F0020B6
:106A700000E100E0FC06FFBD094B9A687AB170B9ED
:106A800010B4EFF3108172B6064A1C6814605C689B
:106A90005460986001B962B65DF8044B7047704766
:106AA000805F002000E100E02DE9F041134DDFF8A8
:106AB00050800F4605EB4105002401262B5D38462A
:106AC00053B12B5D013BDBB22B552B5D9BB958F8C5
:106AD00027301B68DB69984714B11EB9BDE8F08107
:106AE0000124EBE7064B53F8273002215868BDE834
:106AF000F04102F0B9BB0026EEE700BF8C5F00203A
:106B00003C5D00202DE9F04F036893F82140022CF2
:106B100083B06CD14F0016467A1803EB82020D4603
:106B2000526896420446B04665D04168DFF88491C9
:106B30000A7919F80230DBB2FF2B10D0FE2B63D09C
:106B400003F5A8730968594851F8231050F822300A
:106B5000994259D1FF2309F8023063681A79FE235C
:106B600009F80230D4F800A09AF8200002F040FAA8
:106B7000002E77D0DAF818309E4280F0868005EB40
:106B8000450B4FEA8B0B0AEB0B026068526893428D
:106B90003ED0002A3CD096423AD20023032102F094
:106BA000FDFA7B1961685AF80B0009680AEB830348
:106BB00001F5A6719A7A9AF82030CDE90031002AC1
:106BC0006DD001F039FDDDE900310246184602F0D2
:106BD000D1F99AF8200002F0F3F96268334B127988
:106BE00009F802506268127943F8226014E0082024
:106BF00003B0BDE8F08FDB6913B1426810799847A4
:106C0000002003B0BDE8F08F112003B0BDE8F08F85
:106C10000379FF2209F8032032467E190AEB860623
:106C200000232946606802F0B9FA307A02F0C8F908
:106C3000707A02F0C5F92F440AEB8707C7F8048081
:106C40002368DB69002BDBD06268194B127903EBF8
:106C5000420302215955606802F0EEFA002003B0A9
:106C6000BDE8F08F07EB050B0AEB8B0BB0469BF8EA
:106C7000090002F0BDF99BF8080002F0A1F9636871
:106C80001B79FF2209F80320D5E77E190AEB860657
:106C90001FFA83F8307A02F0ABF9707AEDE701F071
:106CA000BDFCDDE90031024690E700BF585D0020E1
:106CB0008C5F0020505D00202DE9F04F036893F8B1
:106CC0002140022C83B075D11F8B4E000D46044627
:106CD00071186A4802FB07F203EB8101A0FB020274
:106CE0005209496897B28F4268D06068DFF898818E
:106CF000017918F80130DBB2FF2B11D0FE2B66D0E2
:106D000003F5A8730068DFF878C150F823005CF839
:106D1000213098425BD1FF2308F80130636819796C
:106D2000FE2308F80130D4F800901FFA82FA99F88F
:106D3000200002F05DF9BAF1000F78D0D9F818A060
:106D4000574580F0848005EB450B4FEA8B0B09EB30
:106D50000B0360685A6892453DD0002A3BD09742A9
:106D600039D20023032102F019FA731909EB8303C6
:106D700061689A7A096899F82030019301F5A67A3A
:106D800059F80B00002A73D001F056FC019B024613
:106D90001846514602F0EEF899F8200002F010F97A
:106DA0006268374B127908F802506268127943F82A
:106DB000227014E0082003B0BDE8F08FDB6913B146
:106DC000626810799847002003B0BDE8F08F112069
:106DD00003B0BDE8F08F0379FF2208F8032006EB2B
:106DE000050809EB880800233A462946606802F046
:106DF000D5F998F8080002F0E3F898F8090002F0D5
:106E0000DFF82E4409EB860677602368DB69002BE8
:106E1000D9D062681B4B127903EB4203022159550A
:106E2000606802F009FA002003B0BDE8F08F77191E
:106E300009EB8707787A02F0DBF8387A02F0C0F8BD
:106E400063681B79FF22574608F80320D9E77719B2
:106E500009EB8707387A02F0CBF8787A02F0B0F8BD
:106E600063681B79FF221FFA8AF708F80320C8E736
:106E700001F0D4FB019B02468AE700BF1F85EB515E
:106E8000585D00208C5F0020505D00202DE9F04F00
:106E900087B0002900F0AA81066896F82130002BFF
:106EA00040F0A5800F469046044601F0F9FF10B16E
:106EB000852840F0A18001F0DFFA002800F09B81D6
:106EC000D24BD34D1B68002203F0F0034FF0FF09B3
:106ED000303BF272F2754FF0FF3218BF012386F893
:106EE000209086F8089086F8099086F81590326010
:106EF0003275F26006F120002B7001F0DBFF0028F4
:106F000040F01B82D7F800A0BAF1FF3F79D17B682F
:106F10005A1C40F0EF800DF1100A3B69B3F5805F19
:106F2000C0F06082B3F5005FC0F05E82B3F5804FC1
:106F3000C0F05C82B3F5004FC0F05A82B3F5803FD9
:106F4000C0F05882B3F5003FC0F05682B3F5802FF1
:106F5000C0F05482B3F5002FC0F05282B3F5801F09
:106F6000C0F05081B3F5001F4FF00902C0F04B8113
:106F70000023072160688DF810208DF813108DF81C
:106F800011308DF812300379A24A0593514602F070
:106F900047F80546002840F0878163683F691B6811
:106FA000D3F810253F01D2B2D740B76160684FF0E7
:106FB000010902F0EFF86068CDF800903A4604232A
:106FC000022102F009F96068022102F04DF9C6F8C9
:106FD0001C80636890481B79904A40F82340FF2149
:106FE000284686F82190D15407B0BDE8F08F0825D7
:106FF000284607B0BDE8F08F0425284607B0BDE855
:10700000F08FD4F8009099F82130002B40F00A81DD
:1070100097F808B089F80AB0C9F804300322236849
:107020008DF810209B7AB3FA83F301225B0904A93F
:1070300050468DF811308DF81220029201F026FA98
:10704000002840F07081029AC9F800A002FA0AF202
:107050004FF0A043BBF1000F40F0A981C3F8082511
:1070600009F1080001F026FF002840F05C8109F1D9
:10707000090001F01FFF002840F0558199F8080031
:1070800001F0B6FF99F8090001F0B2FFBBF1000F63
:1070900000F09381D9F8000001F0CEFA8346D9F8C8
:1070A000000001F0BBFA8246636899F8080019688D
:1070B0005A4601F5A07101F05DFF636899F8090077
:1070C0001968524601F5A47101F054FF012389F8B3
:1070D0000B306368DFF848C193F804E000231A46D8
:1070E000194620460CF81E30FFF70CFD7B685A1C31
:1070F0003FF411AFD4F8009099F82120002A40F015
:10710000918097F809B089F816B0C9F81020226864
:10711000039303218DF8101092F816C00DF1100A98
:10712000BCFA8CFC01224FEA5C1C514618468DF8D3
:1071300011C08DF81220029201F0A8F9002840F049
:10714000F280039B029AC9F80C3002FA03F34FF065
:10715000A042BBF1000F00F02D81C2F80C3509F1FF
:10716000140001F0A7FE002840F0DD8009F11500B1
:1071700001F0A0FE002840F0D68099F8140001F03C
:1071800037FF99F8150001F033FFD9F80C00BBF177
:10719000000F00F01D8101F04FFA0290D9F80C00A9
:1071A00001F03CFA029A8346636899F81400196862
:1071B00001F5A27101F0DEFE636899F81500196807
:1071C0005A4601F5A47101F0D5FE012189F8171086
:1071D0006268134B12794FF0000C03EB4203204618
:1071E000624683F801C0FFF78DFC96E60B25284622
:1071F00007B0BDE8F08F01F0FBF800283FF460AE67
:107200000325F5E60822D2B2B2E600BFE80F00F08F
:107210006C5D0020A96A02003C5D0020505D0020EA
:107220008C5F0020082599F8200001F07FFE99F876
:107230000800FF287BD199F80900FF2804D001F04D
:1072400075FEFF2389F80930D9F80000461C05D0E7
:1072500001F0A0F94FF0FF33C9F8003099F814009D
:107260000023FF2889F80B3004D001F05FFEFF23D4
:1072700089F8143099F81500FF2804D001F056FE63
:10728000FF2389F81530D9F80C00411C05D001F016
:1072900081F94FF0FF33C9F80C30002389F817301B
:1072A000606801F03BFFA3E6266896F8200001F035
:1072B0003DFE307AFF2827D1707AFF282ED1306822
:1072C000421C1BD1307D0023FF28F37211D1707D49
:1072D000FF281ED1F068431C05D10023F3756068B8
:1072E00001F01CFF84E601F055F94FF0FF33F36025
:1072F000F3E701F01BFEFF233375E8E701F04AF9DD
:107300004FF0FF333360DDE701F010FEFF233372EF
:10731000D2E701F00BFEFF237375DBE701F006FEF9
:10732000FF237372CBE7D4F8009004257BE701F0CC
:10733000FDFDFF2389F808307DE7256895F82000DA
:1073400001F0F4FD287AFF2803D001F0EFFD85F865
:107350000890687AFF2803D001F0E8FDFF236B72E4
:107360002868461C04D001F015F94FF0FF332B605C
:10737000287D0023FF28EB7203D001F0D7FDFF2307
:107380002B75687DFF2803D001F0D0FDFF236B75BE
:10739000E868411C04D001F0FDF84FF0FF33EB60CA
:1073A0000023EB75606801F0B9FE042520E6C3F800
:1073B0000C2555E6C2F80835D1E6D9F8000001F0F1
:1073C0002DF98346D9F8000001F036F982466BE6C4
:1073D00001F024F90290D9F80C0001F02DF9029A7D
:1073E0008346E1E62A78C3E501220CE702220AE798
:1073F000032208E7042206E7052204E7062202E743
:10740000072200E7F8B5D0E900531C4E1A79EB7A51
:107410000027044606F81270B3B96268EB7D127952
:1074200006EB420600277770DBB96368144A1B79C4
:10743000FF21D154606801F0ADFE606801F09CFE50
:10744000022385F82130F8BD03682868997AB1FADB
:1074500081F1490901F0FEF8286801F0CDF86F606C
:10746000DBE72368E868997DB1FA81F1490901F009
:10747000F1F8E86801F0C0F82F61D6E78C5F0020D2
:10748000505D002050E8002F0B4640E8003C9CF087
:10749000000FF7D11046704750E8003F03EB0102A0
:1074A00040E8002C9CF0000FF6D11046704700BF5A
:1074B00050E8003FA3EB010240E8002C9CF0000FD5
:1074C000F6D11046704700BF012350E8002F42EA72
:1074D000030C40E800C191F0000FF6D16046704700
:1074E000002350E800CF0CEA030240E8002191F0AD
:1074F000000FF6D160467047F0B583B002AB0025AF
:1075000003F8015D04461846FFF790FAD4E900310C
:107510001A688A4210D9511E19602168A3680F6841
:1075200012F8015C0A79268AE068DB1BDBB29A421A
:1075300006FB050538BF0B719DF80700FFF79CFAA5
:10754000284603B0F0BD00BF30B583B002AB0022C7
:1075500003F8012D054618460C46FFF767FA2A681E
:107560001368591C1160E9682A8A641AB4FBF2F4A2
:107570001C709DF80700FFF77FFA03B030BD00BF15
:107580002DE9F041058ACE1C043D2E440746B6FB8A
:10759000F5F6FFF7B1FF78B3F6B24FF48073013E12
:1075A0000446C5800760838027D08046002509E017
:1075B0006379AE4203F101036371C8F8000007600C
:1075C00080461AD03846FFF797FF01350028EFD1E3
:1075D0006679721E14D02346013082421B68FBD1AB
:1075E0001F684EB1002523682146013538461C46E8
:1075F000FFF7AAFFAE42F6D100242046BDE8F08195
:107600002768EFE704300121FFF746BFF8B50121F5
:1076100004460430FFF74CFFC0B200B1F8BD6679F4
:10762000721E12D02346013082421B68FBD11F68B4
:10763000002EF3D0002523682146013538461C462C
:10764000FFF782FFAE42F6D1F8BD2768F2E700BF30
:107650002DE9F843C788467907FB06F6043E02EB9E
:10766000030C0446664503F1040015468846B0FB4A
:10767000F7F238BFF51A07FB120012B1013A24687D
:10768000FCD13E1AAE4228BF2E469DB14FF00009F4
:107690000430AD1B2044324608EB090101F07CFEAA
:1076A000AF42B14424683E464FF0000028BF2E464A
:1076B000002DEDD1BDE8F88301600B6843604A6896
:1076C000934204BF00234360704700BF436843B147
:1076D000026891680B4443605268934204BF0023E0
:1076E00043607047434B1978002900F081802DE9F1
:1076F000F04F002487B001258E4603E00134E4B248
:10770000744560D23C4B27B21E6816F837C0ACF106
:10771000200205FA02F9394ACCF12003D2E900012E
:1077200025FA03F349EA030905FA0CF800EA08020E
:1077300001EA0903134306EBC70BDFD021EA090373
:107740002E4920EA08026046C1E9002301F09EF8B4
:1077500016F837C0ACF1200205FA02F20192019945
:10776000CCF12003C6B225FA03F3ACF12002194391
:1077700006FA02F30393224B0191D3E90023CDE9EA
:10778000042305FA0CF30093CCF12001039B26FAA5
:1077900001F10B43039306FA0CF30293DDE904674E
:1077A000DDE9002316401F4032463B46DDE9026713
:1077B000BB4208BFB24209D00E4B013493F800E03F
:1077C000E4B274459ED307B0BDE8F08F9BF801107A
:1077D000DBF80430A1F10101B1FA81F14909091A7C
:1077E000B1FA81F14909002BE6D060469847E3E7FA
:1077F000704700BF6D5D0020A85D0020A05D0020E7
:10780000985D00202DE9F84F0646244800F092FBD1
:10781000D8B9234F0123A6F1200103FA01FBC6F1D9
:107820002002D7E9000123FA02F24BEA020B03FA25
:1078300006FA00EA0A0201EA0B03134307D020EA22
:107840000A0421EA0B05C7E90045BDE8F88F304678
:1078500001F01CF8134ED6E90089C8B148EA0A03C2
:1078600049EA0B049846A146D7E900234BEA0305F1
:107870000D4B0A4819684AEA02044B464246C6E9DB
:107880000023C7E900450022BDE8F84F00F0FCBA2C
:1078900028EA0A0829EA0B09E6E700BF745D002020
:1078A000A05D0020985D0020705D0020042A36D97C
:1078B0002DE9F04182B00E460546144600F0DCFD8D
:1078C000002836D01D491E4A1E4B0D601E481F4918
:1078D0001C60167000230022741EC0E90023C1E959
:1078E0000023E4B2EEB105EBC404194F083D4FF09C
:1078F0000008032601E0AC4213D0A37820788DF86D
:1079000006803A4601A98DF804608DF8053000F034
:10791000B9FE083C0028EED002B0BDE8F081072097
:1079200070470C4A0C48002100F09CFA02B0BDE8F8
:10793000F08100F05DFD0028C4D0EDE7A85D0020D7
:107940006D5D0020705D0020985D0020A05D00202E
:1079500005780200E57602004494020070B5084DF7
:107960002B785BB1074E00243368012113F83400F3
:1079700000F02AFF2B780134A342F5D8002070BD17
:107980006D5D0020A85D0020F8B5204A204B002442
:10799000C2F84041C2F84441C2F84841C2F84C41E3
:1079A000C2F80041C2F804411B6833B31949D2F848
:1079B00004550A68AD1A1A6825F07F45AA42274681
:1079C0000DD8197CDE69AD1A144419B11F74D3E9BE
:1079D000052090471EB133461A68AA42F1D90E49D4
:1079E0000E4A0B7812789A4208D00D490D4A41F898
:1079F00023404FF48013C2F80031F8BD531CDBB2B2
:107A0000022B08BF00230B70EFE700BF00100140FE
:107A1000CC5E0020C85E0020C55E0020C45E002051
:107A2000BC5E002000E100E02DE9F04F8C4A8D495A
:107A300013780978DFF85082994285B0D8F800A011
:107A400000F07B810133DBB2022B08BF00238648A4
:107A50001370864A076852F823107B1823F07F437F
:107A600000240360534626462046A446ABB11A685C
:107A70008A4200F26581DC68C3F800C0891A1044AC
:107A8000DA6934B13D1825F07F45C3E90154DE6160
:107A90001E4613460124002BE9D1002C40F07C81C6
:107AA00001230093724B734FDFF8E09143F0010321
:107AB000019355464FF0000B46B3D6E901C1344659
:107AC000F669694B6C481A68ACEB020323F07F43FC
:107AD000834248D80B44236000220121C4E90122DB
:107AE000E2612174002D5DD02A689A424DD2284669
:107AF00003E00A689A424FD20846C1699B1A0029DE
:107B0000F7D12360E161C461002ED6D1787839784D
:107B1000884264D00B4603EB43034C1CBA7807EB56
:107B2000C303E1B28A421A79397004BF0021397067
:107B3000022A9C6844D0032A38D0012AE8D1227C4A
:107B4000002AE5D1D3F80CC0C4F804C01969A160BB
:107B50005869E06099F800009B69A3610028B0D0E3
:107B600062609446ADE7A2EB0C0222F07F428A42AB
:107B700002D28B1A2360AFE700230122C4E900334D
:107B8000A360E36122746DB12A68C8F80040D31A7B
:107B90002B60E56125468FE7D21A0A602360E16118
:107BA000C461B1E7C8F80040254685E7002DAFD095
:107BB00000232B74ED69002DFBD1C8F80050A5E718
:107BC0004DB1AC422B4603D1E4E094422FD0134692
:107BD000DA69002AF9D10023237488429AD1BBF1D3
:107BE000000F01D1554553D0002D56D1234E244AC4
:107BF0001F4C4FF480334FF400310127C2F880103E
:107C00003C43C6F848334FF43C60C6F8083377600D
:107C1000A047154BB7604FF43C601D60A047194B5F
:107C20001D70002389F8003005B0BDE8F08FA34235
:107C300000F09180E0692168D861002800F086801A
:107C40002A4603680B440360AA424FF000033978C8
:107C5000787823741CBF15464FF0010BBDE700BFB9
:107C6000C45E0020C55E0020C85E0020BC5E00200F
:107C700050940200AC5D0020FEFF7F000010014028
:107C800000E100E0B95E0020CC5E0020B85E00207C
:107C9000009B002BC5D0002DA8D0434B434A1C6845
:107CA000D2F80465424FD5F800A03978331B23F091
:107CB0007F43DD1CB9B93F493F4B4FF48030C2F8D8
:107CC00044034FF00108C2F804034FF40030C1F838
:107CD000800143F001030860C2F800804FF43C606B
:107CE000984787F80080AA452CBF04EB0A03631964
:107CF0002E4923F07F43C1F84035D1F80425921B6B
:107D00009B1B22F07F4223F07F4303329A4288D9A3
:107D1000294BD1F80425C1F8402543F001034FF465
:107D20003C609847234B4FF40032C3F800210023F6
:107D300089F8003005B0BDE8F08F00260096B1E666
:107D400074BB521A1A6001230093ABE60023397802
:107D50007878237441E71946EA69C8F8002092B997
:107D6000CDE90231114BDFF840C001209860019B42
:107D700089F80000CCF800204FF43C609847DDE91A
:107D80000231D8F80020C8690968D86100287FF45A
:107D900058AF59E72946DFE7C8F800309A467FE632
:107DA000C8F800309A46CCE7C85E002000100140B9
:107DB000B95E002000E100E0509402002DE9F84394
:107DC0001F4D204E204FDFF898804FF480334FF442
:107DD00000324FF001090024C6F8802047EA090765
:107DE000C5F848334FF43C60C5F80833C5F8049033
:107DF000B847C5F808904FF43C60C8F80040B84751
:107E0000124A134B13491C601470134B134A0C7025
:107E10000B2114701C8099704FF48012C023C6F897
:107E2000802186F814333260C5F8084586F811338E
:107E3000D5F80435C8F800302046BDE8F88300BF07
:107E40000010014000E100E050940200B95E002003
:107E5000CC5E0020C45E0020AC5D0020C55E00202A
:107E6000C85E0020074B9B784BB132B128B1036844
:107E7000187C20B959745A61704707207047082050
:107E8000704700BFAC5D00202DE9F047264CA37879
:107E900082B0002B3CD000283AD004293CD9436959
:107EA000002B35D0814602A899F811300026012B0D
:107EB00000F8016D0CBF8846B04617468A46FEF7AB
:107EC000B5FD6378A17822789DF807005D1CEDB2BE
:107ED000A94208BF3546AA4222D003EB430304EB74
:107EE000C3030121114AC3F808901971D2F804257F
:107EF0006570C3E9032AC3E90587FEF7BDFD0C4B96
:107F00004FF480123046C3F8002102B0BDE8F0877C
:107F1000082002B0BDE8F087072002B0BDE8F08776
:107F2000FEF7AAFD0420F0E7AC5D00200010014040
:107F300000E100E0F0B51A4CA37883B043B338B346
:107F400043692BB3064602A8002500F8015D35748D
:107F5000FEF76CFD6278A77821789DF80700531C26
:107F6000DBB29F4208BF2B46994214D002EB42027B
:107F700004EBC2020221966011716370FEF77CFD72
:107F8000084B4FF480122846C3F8002103B0F0BD1F
:107F9000082003B0F0BDFEF76FFD0420F9E700BF35
:107FA000AC5D002000E100E0014B1878704700BF95
:107FB000D05E002000B583B068460849FFF77CFB1F
:107FC000019B43B1D3E9002090476846FFF77EFB51
:107FD000019B002BF6D103B05DF804FB589402001E
:107FE0004BDF704710B5114C84B001A8FFF7F8FFC4
:107FF000A8B9214602A8FFF75FFB039B002BF4D032
:10800000D3E900210198904702A8FFF75FFB039B8B
:10801000002BF5D101A8FFF7E3FF0028E9D00528E0
:1080200001D0FEF7BBFC04B010BD00BF6C94020091
:1080300030B4904B1B78062B20D08F4B1B68062B3F
:1080400000F085808D4AD2F8883043F47003C2F87E
:108050008830BFF34F8FBFF36F8F4FF01023D3F8EB
:108060000022002AC0F28681D3F80432002BC0F22D
:108070008181834B834A1A6030BC7047824B1B68F6
:108080001D07DAD1814B1B6803F0F002302A00F0A3
:108090009E8003F0E003402B00F099807B4B1B682F
:1080A00003F0F003302B00F0B980784B1B6803F02D
:1080B000F002302A56D003F0E003402B52D0734B2D
:1080C0001B6803F0F003302B00F0B6806F4B1B6889
:1080D00003F0F002302A66D003F0E003402B62D0B8
:1080E0006A4B1B6803F0F003302B00F0B580674B40
:1080F0001B6803F0F003302B79D0644B1B6803F04E
:10810000F003502B00F0E480604B1B6803F0F0029A
:10811000302A37D003F0E003402B33D05B4B1B6891
:1081200003F0F002302A03D003F0E003402B84D1A7
:108130004FF08043D3F80024D20744BF6FF0010210
:10814000C3F800244C4B1B68062B7FF47BAF504BCD
:108150001B68062B7FF476AF4E4A136843F48063A6
:1081600013606FE74C4B434A1B6812784B49C3F3CB
:108170004233062A0B6048D1434B1B6819077FF432
:108180005CAF9CE7464A3B4B12681B78454902F0BE
:108190004F02062B0A607FF450AF3B4B1B68190758
:1081A0007FF44BAFBAE74FF080430022C3F80C21B5
:1081B000C3F81021C3F838252E4B1B78062B7FF40B
:1081C0003CAF314B1B681B077FF437AF88E7364B5A
:1081D000284A1B6812783549C3F30423062A0B602A
:1081E000EAD1294B1B681C077FF427AF56E7304CB8
:1081F000204A304912783048304B0525256001254A
:108200000D6000243F2104601960062A7FF415AF39
:108210001D4B1B681C077FF410AF6EE7154B284AF7
:108220001B7828491160062B7FF407AF164B1B689B
:1082300018077FF402AF38E723490E4BCA681B7852
:1082400022F08072062BCA607FF4F7AE0E4B1B68DB
:108250001A077FF4F2AE39E7064B1C4A1B7803215C
:10826000062B11607FF4E9AE074B1B681D077FF4F6
:10827000E4AE3CE7E00F00F03001001000ED00E05C
:10828000B85700200090D003E40F00F0E80F00F092
:10829000340100103C170040440200103C0500402F
:1082A00058020010E40E0040240300104035014045
:1082B00010560040885600401856004014560040A2
:1082C00074C007400DF0ADBAF0ED00E0A00500402D
:1082D0004FF08053404AD3F80414C2F82015D3F865
:1082E0000814C2F82415D3F80C14C2F82815D3F8D2
:1082F0001014C2F82C15D3F81414C2F83015D3F8A2
:108300001814C2F83415D3F81C14C2F84015D3F869
:108310002014C2F84415D3F82414C2F84815D3F831
:108320002814C2F84C15D3F82C14C2F85015D3F801
:108330003014C2F85415D3F83414C2F86015D3F8C9
:108340003814C2F86415D3F83C14C2F86815D3F891
:1083500040142248C2F86C15D3F844140378C2F8CC
:108360007015062B7FF469AE1D4B1B6818077FF450
:1083700064AEC9E61B4B0122C3F80425D3F80024E0
:10838000002AFBD04FF0102315221649C3F8002213
:10839000D1F80034002BFBD04FF010221521114BE7
:1083A000C2F80412D3F80024002AFBD000220D49A1
:1083B000C3F80425D1F80034002BFBD0BFF34F8F56
:1083C00009490A4BCA6802F4E0621343CB60BFF369
:1083D0004F8F00BFFDE700BF00C00040E00F00F07E
:1083E000E40F00F000E0014000ED00E00400FA05B9
:1083F00070B51D4C94F8495082B095BB4FF0FF33D7
:108400002946042204F14500C4E90933C4E90B33C9
:10841000C4E90D33C4E90F33C4E90033C4E90233BE
:10842000C4E90433C4E90633236284F8443000F01D
:10843000BEFF0E4B0E4A0F4E1560C02183F8061387
:108440004021C3F8801119601368019301994FF01E
:1084500000430122284684F84920C6F8043302B0BC
:1084600070BD082002B070BDD45E002000E100E0C5
:108470007C61004000600040034B93F849000030ED
:1084800018BF0120704700BFD45E002070B43F4B7E
:108490001A1892F92440013441D18C78E4B11A6859
:1084A000013268D05A68013267D09A68013266D0CA
:1084B000DA6801325DD01A69013262D05A6901323C
:1084C00061D09A6901322DD0DA69013208BF0722E2
:1084D00029D0042070BC7047FE2382F824304A78EB
:1084E0000123012A4FF0A04203FA00F30CBFC2F8A7
:1084F0000835C2F80C3500F5E0724FF0A0430321B7
:1085000043F82210C208224900F007008C5C0123C6
:1085100003FA00F020438854002070BC7047082004
:1085200070BC70470622940004F1804404F5C044F6
:108530001D18002643F8226085F82420D4F8103551
:108540000A784D7823F4981323F4F85312042D0578
:10855000C4F8103505F4801502F4403203022A43B2
:1085600003F4F853D4F8105513432B43C4F81035D3
:10857000B5E70322D7E70022D5E70122D3E702229D
:10858000D1E70422CFE70522CDE700BFD45E00206B
:10859000195F002030B4154B1A1892F92420D1B27B
:1085A000072909D802F5A272114C4FF0FF3543F8A4
:1085B0002150002144F822100344FF2283F8242094
:1085C0000C49C20800F007058C5C0123AB401C423B
:1085D0000AD000F5E0704FF0A044022544F8205086
:1085E000885C20EA03038B5430BC7047D45E0020C3
:1085F00000600040195F0020074B184490F92430B8
:108600009B0003F1804303F5C043D3F8102542F0EB
:108610000302C3F810257047D45E0020054B1844B0
:1086200090F924000C308000C0B200F1804000F5C9
:10863000C0407047D45E0020054B184490F92400D8
:1086400018308000C0B200F1804000F5C040704793
:10865000D45E00200A4B18440A1C90F924304FEADB
:10866000830303F1804303F5C04318BF0122D3F80D
:10867000101521F4801141EA0251C3F8101570471A
:10868000D45E0020F0B44E4B1D1895F92440002C08
:1086900024DA8C78C4F34004D4B11E68013600F0AB
:1086A0008A805D6801351CD09D68013579D0DD6810
:1086B000013578D01D69013577D05D69013576D0F7
:1086C0009D69013575D0DD69013504D1072509E0C3
:1086D0001C6A013452D00420F0BC70470820F0BC62
:1086E000704701251F186EB243F8252087F82460D3
:1086F000002C49D08A78540715D4D50748D5820074
:1087000002F1A042D2F8004724F00204C2F8004768
:108710002C4DC40800F0070C2F5D012202FA0CF268
:108720003A432A558A780C7812F002020AD1083EA0
:108730003344104693F8442042EA841483F84440BA
:10874000F0BC7047B30003F1804303F5C04302025D
:10875000D3F8101521F4473121F44071C3F81015F6
:10876000240404F44034D3F8101502F4F8522243E0
:108770000A43C3F810250020F0BC7047082485F890
:1087800024401A62264625461D4485F83C00B1E780
:108790004C784FF0A04500F5E072A40045F8224067
:1087A000B6E702259EE703259CE704259AE7052501
:1087B00098E7062596E700261A6085F8246099E771
:1087C000D45E0020195F002070B42E4D2E1883B0A7
:1087D00096F92430072B1CDD2B4493F83C309B0981
:1087E000032B41D0012B14BF4FF440314FF4003123
:1087F000800000F1A040D0F8002722F44032C0F8F9
:108800000027D0F800370B43C0F8003703B070BC26
:108810007047DAB2072AF9D8980000F1804000F5D5
:10882000C04003F14002D0F81045920092B244F0EB
:10883000010402F18042C0F8104502F5C042002058
:108840000190019C10600029E0D096F9242055F891
:108850002220002ADAD001220B4902FA03F3C1F8E0
:10886000043303B070BC70474FF0A043D3F8103509
:10887000C34013F0010F0CBF4FF400314FF44031EF
:10888000B6E700BFD45E0020006000404FF0A04378
:10889000D3F8103523FA00F000F00100704700BF54
:1088A0002DE9F04186B00023AE4A01931768012FED
:1088B00000F0B7801F46AC4B1A68012A00F0C08058
:1088C000AA4B1A68012A00F0CD80A94B1A68012A28
:1088D00000F0DA80A74B1A68012A00F0E780A64B67
:1088E0001A68012A00F0F480A44B1A68012A00F0EB
:1088F0000181A34B1A68012A0CD0A24B1B68012BE3
:1089000000F0088117F0FF0F15D1002F30DB06B003
:10891000BDE8F0819C4AD2F804231206EDD500226E
:108920001A601A6804926033049A1B68012B47F09E
:10893000800700F0EF80954D00240126A30003F18D
:1089400080433E4203F5C0434FEA46060BD0D3F8BE
:10895000100555F82420D3F81015C0F30420C1F3F6
:10896000014102B190470134082CE7D1002FCEDA43
:1089700000224FF0FF33CDE90223844C012502AEE3
:1089800094F94430D9B2013321F0C000BFD006AB16
:108990004FEAD00C03EB0C0701F0070317F80C2C7F
:1089A00005FA03F31A42B2D02218890992F9242059
:1089B00054F82280B8F1000F00F0CB80032900F0BA
:1089C000CB80820002F1A04217F814CCD2F80077D5
:1089D0001CEA030FC7F3014740F0AA80032F96D18A
:1089E000032940F0AA804FF40033D2F8001721F495
:1089F0004031C2F80017D2F800170B43C2F8003715
:108A0000B8F1000F01D00321C0474FF0A043019AF5
:108A1000D3F8103593423FF47AAF029A0193039250
:108A2000AEE75949D1F8041311F0010170D0136079
:108A300013680493049B4C4B1A68012A7FF440AFDF
:108A4000514AD2F8042392077FF53AAF00221A6008
:108A50001B680493049B454B1A68012A47F00207E0
:108A60007FF433AF484AD2F8042356077FF52DAF81
:108A700000221A601B680493049B3D4B1A68012A6C
:108A800047F004077FF426AF3F4AD2F804231507C6
:108A90007FF520AF00221A601B680493049B354BBE
:108AA0001A68012A47F008077FF419AF364AD2F84E
:108AB0000423D4067FF513AF00221A601B680493C9
:108AC000049B2D4B1A68012A47F010077FF40CAF66
:108AD0002D4AD2F8042390067FF506AF00221A60D3
:108AE0001B680493049B254B1A68012A47F0200752
:108AF0007FF4FFAE244AD2F8042351067FF5F9AE85
:108B000000221A601B680493049B47F04007F0E6BC
:108B10000F46D0E61B4B00221A601B6805934FF0EE
:108B2000A043059AD3F81035019347F00047E9E6D2
:108B3000022F7FF4ECAE032908D0B8F1000F3FF408
:108B4000E6AE434606B0BDE8F04118474FF4403367
:108B50004BE703297FF4DBAE16F80C201A4306F826
:108B60000C202EE7006100400461004008610040D5
:108B70000C61004010610040146100401861004029
:108B80001C6100407C61004000600040D45E002019
:108B9000054A13792BB901211060537118461171E0
:108BA00070478520704700BF205F0020084B1A687F
:108BB000D20706D40122C02183F80013C3F8802114
:108BC0001A604FF080430122C3F81825704700BF98
:108BD00000E100E010B41349134B144A0020086070
:108BE00083B0096801914FF080410220019CC1F8D7
:108BF0000403D86840F08071D960146844F0010320
:108C00001360516853685B1AB3F50A5FFAD30649DB
:108C1000074B14600122C8601A6003B05DF8044B72
:108C2000704700BF04010040F0ED00E0001000E0DC
:108C300008000040044B01221A604FF08042D2F835
:108C40001834DB03FBD470470C00004010B5154B03
:108C50001A6882B07AB10021134A19601B685079F2
:108C600000934FF080410123009CC1F8083310B9F4
:108C70001168537188470D4B1A6882B100221A603F
:108C80001B6801934FF080420221074B0198C2F804
:108C900008131B68012002B0BDE81040184702B05D
:108CA00010BD00BF00010040205F00200401004013
:108CB0000649074A074B9B1A03DD043BC858D050AE
:108CC000FBDCFFF7B5F9FDF7BBFA000024950200C5
:108CD000B857002028580020FEE7FEE7FEE7FEE731
:108CE000FEE7FEE7FEE7FEE7FEE7FEE710B570B140
:108CF00001280BD10D4C2369A0703BB1D3E90023AF
:108D00000120226198472369002BF7D110BD074C41
:108D1000A36801226270002BF8D0D3E90023002061
:108D2000A2609847A368002BF7D1EFE7285F0020E7
:108D300070B910B5074CA368012262703BB1D3E94A
:108D400000230020A2609847A368002BF7D110BD34
:108D5000704700BF285F002030B5012883B01CD0C9
:108D600015D3032811D1FFF721FF02A800231F4CC0
:108D700000F8013DFDF75AFEE368013BE360E5685A
:108D800065B39DF80700FDF777FE03B030BD184BC3
:108D90000122C3F8802003B030BD02A80023134C89
:108DA00000F8013DFDF742FE237853B1E3689DF8DA
:108DB000070001330122E360A270FDF75DFE03B0FE
:108DC00030BD0C486360A3602361E360FFF7E0FE01
:108DD000FFF7EAF830B101232370E7E7FFF72AFF36
:108DE000A570CEE7FFF7E2FEF5E700BF285F0020A1
:108DF00000E100E0ED8C020038B50C4C237873B92B
:108E00000B486360A3602361E360FFF7C1FE054682
:108E1000FFF7CAF830B101232370284638BD8525F5
:108E2000284638BDFFF7C2FEF5E700BF285F0020E7
:108E3000ED8C020030B5194CA37883B0054693B190
:108E400010B143680120984702A8002300F8013DB3
:108E5000FDF7ECFDE3689DF807000133E360FDF7E3
:108E60000BFE03B030BD02A803F0FF0200F8012D95
:108E7000FDF7DCFD65B1226942B1954208D0134689
:108E800001E09D4204D01B68002BFAD12A602561C5
:108E9000E368002BDED1FFF79DFEDBE7285F0020B3
:108EA000034B187810B901221A707047852070475B
:108EB0003C5F00202DE9F04F002685B0194DDFF80A
:108EC00068908246B3464FF0010805E09DF80F0018
:108ED000FDF7D2FDA54320D0F7B208FA07F40DF153
:108EE0000F008DF80FB0FDF7A1FD2C4206F1010631
:108EF000ECD0D9F8003014EA03020192E6D11C4309
:108F00009DF80F008AF80070C9F80040FDF7B4FD25
:108F1000019A104605B0BDE8F08F042005B0BDE809
:108F2000F08F00BFFFFF0100405F002030B501243B
:108F30008440C4F3100383B0A3B102A80B4B0025F7
:108F4000C3F8084500F8015DFDF770FD084A9DF87B
:108F50000700136823EA04041460FDF78DFD28461A
:108F600003B030BD072003B030BD00BF00F00140AA
:108F7000405F0020B9B1B2B10123834010B4C3F304
:108F8000100494B10D4C2468234212D0C00000F1AB
:108F9000804303F5F8330020C3F81015C3F81425F7
:108FA0005DF8044B70470E20704707205DF8044BB6
:108FB000704708205DF8044B704700BF405F0020F9
:108FC000012383405A0C52044AB91BB1064A126865
:108FD000134206D0054A0020C2F804357047072026
:108FE00070470820704700BF405F002000F001403C
:108FF000012383405A0C52044AB91BB1064A126835
:10900000134206D0054A0020C2F8083570470720F1
:1090100070470820704700BF405F002000F001400B
:10902000F0B407793B4D7E00F419A40005EB040C65
:1090300082B09CF80830002B67D12A514A68CCF8DE
:109040000420427972B19C469A0002F5A07204682D
:1090500044F802C00133A45842790194DBB29A4229
:10906000019CF1D80468CB78240B62B25B01002A22
:10907000DBB244DB02F1604202F5614282F8003368
:109080000268120B42F3C40323F0604323F003038E
:1090900003F1604303F56143012402F01F0204FA67
:1090A00002F2C3F880211A60D0F800C04B78DCF8D7
:1090B000042503F0030322F003021343CCF8043524
:1090C000D0F800C08B78DCF8082503F0030322F009
:1090D00003021343CCF8083500680B78D0F810254C
:1090E0003E4422F00F0203F00F0305EB8605134305
:1090F000C0F8103500202C7202B0F0BC7047064A50
:1091000004F00F0422441376BAE7082002B0F0BC42
:10911000704700BF445F0020FCEC00E00368144986
:109120001B0B5AB2520930B420320124114D03F006
:109130001F0304FA03F345F8223003680022D3F832
:109140000052C3F8002203684FF0FF35C3F80853FC
:1091500003681C61037903EB430301EB83031C7277
:10916000037903EB430301EB83010A7230BC7047C0
:10917000445F002000E100E00368054A0121196016
:10918000037903EB430302EB830302221A72704755
:10919000445F002003680122DA60704770B44FF426
:1091A000803483B08C4005684BB9C5F80843036828
:1091B00001F5A87143F8212003B070BC704701F19C
:1091C00050039B000026EE50ED5803680195019D69
:1091D000C3F80443EBE700BFF0B4076840F20115A1
:1091E000D7F800428D4024EA0504C7F8004205681C
:1091F00082B0D5F800429DF8186023434FF48034C4
:10920000C5F800328C4056B90368C3F808430368B8
:1092100001F5A87143F8212002B0F0BC704701F1BC
:1092200050039B0005680026EE50ED580368019539
:10923000019DC3F80443EAE710B401F150039B0019
:1092400004689BB20022E25083B0E45801944FF4CA
:10925000803202FA01F10368019AC3F8041303B0E3
:109260005DF8044B704700BF02684FF4803303FA87
:1092700001F1C2F8081370472DE9F041114C124E6C
:10928000DFF8488082B000254FF480372368A4F5CA
:10929000004007FA05F20021013580B253B1D6F83B
:1092A00004331A4206D0216023680193D8E90031C3
:1092B000019A9847042D04F10404E7D102B0BDE8F7
:1092C000F08100BF4081004000800040445F0020EA
:1092D0002DE9F041114C124EDFF8488082B0002594
:1092E0004FF48037236804F5E04007FA05F20021C7
:1092F000013580B253B1D6F804331A4206D021604A
:1093000023680193D8E90331019A9847042D04F1A9
:109310000404E7D102B0BDE8F08100BF40910040F5
:1093200000900040445F002008B5074B044613B18D
:109330000021AFF30080054B1868836A03B198479A
:10934000204600F03DF800BF00000000A894020095
:1093500070B50D4E0D4CA41BA4100025A54209D1DB
:109360000B4E0C4C00F02EF8A41BA4100025A542B7
:1093700005D170BD56F8253098470135EEE756F80F
:10938000253098470135F2E71C5800201C58002072
:109390001C5800202058002010B5431E0A4491425A
:1093A00000D110BD11F8014B03F8014FF7E702445B
:1093B0000346934200D1704703F8011BF9E7000010
:1093C000FEE700BFF8B500BFF8BC08BC9E4670477A
:1093D000F8B500BFF8BC08BC9E46704719000000F5
:1093E0001A000000000000000200000088130000C6
:1093F0005C5F00200894020004000300C1620200C8
:109400000338FDD8704700000090004001040000C0
:109410004261636B656E647320666C757368656426
:109420000000000061707000466174616C2065721C
:10943000726F720053797374656D20726573657411
:1094400000000000745D002000000000000000002B
:109450000338FDD870470000C0940200C894020091
:10946000080000006E72665F73646800B0940200CA
:10947000B8940200080000006E72665F7364685F53
:10948000736F63004750494F54450000434C4F43AE
:109490004B000000636C6F636B000000505049008C
:1094A00054494D4552000000BC5700200000000008
:0894B000318D020000000000F4
:0894B800598D020000000000C4
:0894C000E57F0200000000003E
:1094C8008C94020000000000849402000000000058
:1094D8009C94020000000000A0940200000000001C
:1094E800249402000000030394940200000000008A
:1094F8006494020000000303789402000000030350
:1095080048580020105900201859002050580020B1
:049518001800000037
:08951C0024CDFF7F01000000D7
:109524000090D003000000000000000000000000D4
:109534000000000000000000000000000000000027
:109544000000000000000000000000000000000017
:109554000000000000000000000000000000000007
:1095640000000000000000000000000000000000F7
:1095740000000000000000000000000000000000E7
:0C958400000000002562020001620200ED
:0400000320008CB19C
:00000001FF
