:020000022000DC
:1060000000000120558002007D8002007F80020098
:106010008180020083800200858002000000000071
:106020000000000000000000000000008780020067
:1060300089800200000000008B8002008D80020039
:10604000F17F02008F8002008F8002008F800200AB
:106050008F8002008F800200457C02008F8002004A
:106060008F8002008F8002008F8002008F800200EC
:106070008F8002008F8002008F8002008F800200DC
:106080008F800200256F02008F8002008F80020047
:10609000C56F02008F800200517502008F800200E0
:1060A0008F8002008F8002008F8002008F800200AC
:1060B0008F8002008F8002000000000000000000BE
:1060C0008F8002008F8002008F8002008F8002008C
:1060D0008F8002008F8002008F800200000000008D
:1060E00000000000000000000000000000000000B0
:1060F00000000000000000000000000000000000A0
:10610000000000000000000000000000000000008F
:10611000000000000000000000000000000000007F
:10612000000000000000000000000000000000006F
:10613000000000000000000000000000000000005F
:10614000000000000000000000000000000000004F
:10615000000000000000000000000000000000003F
:10616000000000000000000000000000000000002F
:10617000000000000000000000000000000000001F
:10618000000000000000000000000000000000000F
:1061900000000000000000000000000000000000FF
:1061A00000000000000000000000000000000000EF
:1061B00000000000000000000000000000000000DF
:1061C00000000000000000000000000000000000CF
:1061D00000000000000000000000000000000000BF
:1061E00000000000000000000000000000000000AF
:1061F000000000000000000000000000000000009F
:1062000010B5054C237833B9044B13B10448AFF3F0
:1062100000800123237010BD2858002000000000DA
:106220009083020008B5034B1BB103490348AFF349
:10623000008008BD000000002C5800209083020060
:10624000154B002B08BF134B9D46A3F5803A002148
:106250008B460F461348144A121A02F036F80F4BB9
:10626000002B00D098470E4B002B00D09847002001
:10627000002104000D000D48002802D00C48AFF3A7
:10628000008001F0F3FF2000290000F023F801F066
:10629000D9FF00BF0000080000000120000000003E
:1062A0000000000028580020105F002000000000BF
:1062B0000000000004280CD14FF0A042D2F80435B1
:1062C000D94301F0004103F00043C2F80815C2F8B9
:1062D0000C3570474FF0A04370B503224FF0804556
:1062E0004FF000444FF000704FF08061C3F8782702
:1062F000C3F80C55C3F87C27C3F80C45C3F86427D2
:10630000C3F80C05C3F86827C3F80C1501F046FF65
:1063100008B100F0FFFA002001F05EFF01F01CF868
:1063200008B100F0F7FA40F266620121144800F06B
:106330008BFD08B100F0EEFA00F0DEFDE8B94FF099
:10634000A0434FF08062C3F808250E4D4FF0A046E1
:1063500045F00105D6F80435DA4302F0804203F037
:106360008043C6F808254FF47A74C6F80C354FF40C
:106370007A40A847013CFAD1ECE700F0CBFAE4E719
:10638000F882020000830200F0B5324C85B004F5BB
:10639000836000F067FB04F2144000F063FBD4E973
:1063A000013703EA0702D01C04EB800114F8200037
:1063B00010F0040044D003F1030C0E7806F003063D
:1063C000012E654635D0022E02F1030621D004EBE2
:1063D00086010028F1D104EB82020133D2680192D8
:1063E0003B4004EB830302F00302012ADE6829D05C
:1063F000022A23D1BDF806309B090333360C05EB86
:106400009305154800F03AFB00B16560304605B0D1
:10641000F0BD4B880CEB931307EA0302D11C03F188
:10642000030C14F82100654604EB810100F0040020
:10643000CFE70B88C3F383136344EDE70026E0E75F
:10644000DD1CC8E7BDF80430C3F38313360C1D44CC
:10645000D7E700BF14590020285D00202DE9F04740
:10646000C94C002384B0C4F81834BFF34F8FD4E96B
:10647000015605EA0602D31C04EB830114F823300D
:1064800058071BD527680B7803F00303012B00F096
:10649000B380022B03D14B88033505EB931506EA35
:1064A0000502D4F81804D31C04EB830130B9AF42C1
:1064B00040F2B08014F823305B07E4D404EB82028E
:1064C000691CAB1C31403340D068019004EB810261
:1064D00004EB830300F00300D268DB680228CDE9F7
:1064E000022305F1030700F00281012800F09680E5
:1064F000D4F810543DB12B6828469B689847EB6848
:106500001D68002DF7D104A8002300F80D3D9F4F12
:106510009F4BA568FF1A00F045FAD4E90132D4F880
:10652000008013440133A3EB0803022B4FEAD70783
:1065300000F2DB80974E0121304600F07BFAFFF736
:1065400023FF0146304600F075FAD4E90132216894
:10655000134401335B1A022BEDD90A4003320523A1
:1065600003319DF8030044F82230216000F040FA26
:106570000021884800F054FA80F3100008F101036C
:106580002B4004EB8303BFB247EA0040D86008F118
:106590000206D4F80C3498472E4004EB860605EA30
:1065A00008050335F06014F825307B49022262F3B8
:1065B000C50304F8253034F825306FF3891324F827
:1065C000253054F8252061F39F221346012161F301
:1065D00001036FF3820344F8252004F8253094F872
:1065E00020341BB90EE0FFF739FF58B1D4E900039E
:1065F0008342F8D1034607E00B880335C3F38313C6
:106600001D444CE7D4E90030C01A18BF012004B083
:10661000BDE8F087676004B0BDE8F087BDF80420EE
:106620005E48C2F38313062B28BF062363F3891247
:1066300003339900ADF8042000F070FA804600287A
:106640003FF456AF00F0ACFA00230C2201A94046FB
:1066500000F0CCFABDF8043013F4707F00F0B48081
:106660006FF0020AAAEB050A0C2506EA07010331BE
:106670002B46042204EB8101404600F0B7FABDF836
:10668000043007F101090AEB0902C3F383139342B3
:106690004F4605F10405E8D8D4F81834002B6CD126
:1066A000D4F8105465B1EB685A7928464146002A5F
:1066B0005FD02B681B689847EB681D68002DF2D1EE
:1066C000404600F071FA04A8002300F80D3D00F0E8
:1066D00069F9D4F818340BB9C4F804909DF8030094
:1066E00000F086F9D4E900308EE7414635E7BDF881
:1066F00006302A484FEA93194D46502D28BF5025A1
:1067000065F38F1305F10C01ADF8063000F006FAC1
:10671000804600283FF4ECAE26EA070A0AF1010A97
:1067200000F03EFA4FEA8A0A00230C2201A94046F3
:1067300000F05CFA55453CD9EBB2BAF1000F31D00C
:1067400006EA0701A3EB0A03033104EB8101DDB282
:1067500052460C23404600F049FA2A460AF10C033F
:106760000F49404600F042FA09F1030907EB990985
:1067700092E71D68002D96D1A2E7404600F014FA7A
:10678000D4E9003040E700BF14590020BC83020068
:10679000AC830200305D002008830200DC8302002D
:1067A000205900202A460C230849404600F01EFAD2
:1067B000DAE706EA0701033104EB81012A460C23DC
:1067C000404600F013FACFE7B94665E720590020AC
:1067D0002DE9F04383B002AB002203F8012DDFF86E
:1067E000EC90074618468846D9F8084000F0DAF8D9
:1067F000D9E90132D9F80060134401339B1B022B05
:1068000060D809F21C450121284600F013F9FFF772
:10681000BBFD0146284600F00DF9D9E90132D9F84F
:106820000010134401335B1A022BECD90A400332E7
:10683000052303319DF8070049F82230C9F80010FC
:1068400000F0D6F80021204800F0EAF880F31000AC
:10685000731C234009EB8303000440EA1740D8600F
:10686000B51CD9F80C349847254009EB8505344010
:106870000334E86019F8243067F3C50309F82430BD
:1068800039F824306FF3891329F8243059F824207B
:1068900068F39F221346012161F301036FF3820322
:1068A00049F8242009F8243099F820341BB906E06F
:1068B000FFF7D4FD18B1D9E900329A42F8D103B0FC
:1068C000BDE8F0833146B1E7305D00201459002067
:1068D000044BD3E900239A4201D0FFF7BFBD00204B
:1068E000704700BF1459002038B5094BD3F8104445
:1068F000012583F820544CB1E3685D71236820467C
:106900005B689847E3681C68002CF5D138BD00BF70
:106910001459002000B585B000230390194601AA40
:1069200044F20100CDE9013300F004F805B05DF850
:1069300004FB00BF10B572B6FFF7D6FFFFF7C8FF24
:106940000028FBD1104B114C1149E41AE40824042F
:1069500044F00100FFF73CFF0E4B1B68DB0700D53E
:1069600000BE44F002000C49FFF732FFBFF34F8F27
:106970000A490B4BCA6802F4E0621343CB60BFF3D1
:106980004F8F00BFFDE700BFAC830200BC83020055
:1069900020830200F0ED00E02C83020000ED00E017
:1069A0000400FA0570B4EFF3108472B60D4B9A68C8
:1069B000AAB90D490D4E01259D60D1F88050354092
:1069C0001D60C1F88060D1F884505D604FF0FF33E6
:1069D000C1F88430027004B962B670BC70470123FC
:1069E0000370F8E7045F002000E100E0FC06FFBD53
:1069F000094B9A687AB170B910B4EFF3108172B68E
:106A0000064A1C6814605C685460986001B962B6FC
:106A10005DF8044B70477047045F002000E100E020
:106A200050E8002F0B4640E8003C9CF0000FF7D1E7
:106A30001046704750E8003F03EB010240E8002C8D
:106A40009CF0000FF6D11046704700BF50E8003FA1
:106A5000A3EB010240E8002C9CF0000FF6D1104699
:106A6000704700BF012350E8002F42EA030C40E8C2
:106A700000C191F0000FF6D160467047002350E846
:106A800000CF0CEA030240E8002191F0000FF6D19C
:106A900060467047F0B583B002AB002503F8015D96
:106AA00004461846FFF77EFFD4E900311A688A428F
:106AB00010D9511E19602168A3680F6812F8015C93
:106AC0000A79268AE068DB1BDBB29A4206FB0505E1
:106AD00038BF0B719DF80700FFF78AFF284603B007
:106AE000F0BD00BF30B583B002AB002203F8012D2A
:106AF000054618460C46FFF755FF2A681368591CCF
:106B00001160E9682A8A641AB4FBF2F41C709DF8DB
:106B10000700FFF76DFF03B030BD00BF2DE9F04166
:106B2000058ACE1C043D2E440746B6FBF5F6FFF75A
:106B3000B1FF78B3F6B24FF48073013E0446C580CE
:106B40000760838027D08046002509E06379AE4244
:106B500003F101036371C8F80000076080461AD092
:106B60003846FFF797FF01350028EFD16679721E8E
:106B700014D02346013082421B68FBD11F684EB1FE
:106B8000002523682146013538461C46FFF7AAFF39
:106B9000AE42F6D100242046BDE8F0812768EFE739
:106BA00004300121FFF746BFF8B501210446043047
:106BB000FFF74CFFC0B200B1F8BD6679721E12D06B
:106BC0002346013082421B68FBD11F68002EF3D0A0
:106BD000002523682146013538461C46FFF782FF11
:106BE000AE42F6D1F8BD2768F2E700BF2DE9F843C1
:106BF000C788467907FB06F6043E02EB030C044601
:106C0000664503F1040015468846B0FBF7F238BF2D
:106C1000F51A07FB120012B1013A2468FCD13E1AA2
:106C2000AE4228BF2E469DB14FF000090430AD1B87
:106C30002044324608EB090101F03CFBAF42B1446D
:106C400024683E464FF0000028BF2E46002DEDD1AF
:106C5000BDE8F88301600B6843604A68934204BF53
:106C600000234360704700BF436843B102689168E6
:106C70000B4443605268934204BF00234360704753
:106C8000434B1978002900F081802DE9F04F002452
:106C900087B001258E4603E00134E4B2744560D22A
:106CA0003C4B27B21E6816F837C0ACF1200205FA3B
:106CB00002F9394ACCF12003D2E9000125FA03F3A5
:106CC00049EA030905FA0CF800EA080201EA090397
:106CD000134306EBC70BDFD021EA09032E4920EA54
:106CE00008026046C1E9002300F0A2FF16F837C091
:106CF000ACF1200205FA02F201920199CCF12003D5
:106D0000C6B225FA03F3ACF12002194306FA02F3E6
:106D10000393224B0191D3E90023CDE9042305FA23
:106D20000CF30093CCF12001039B26FA01F10B43F5
:106D3000039306FA0CF30293DDE90467DDE900230F
:106D400016401F4032463B46DDE90267BB4208BFA2
:106D5000B24209D00E4B013493F800E0E4B274451E
:106D60009ED307B0BDE8F08F9BF80110DBF804302C
:106D7000A1F10101B1FA81F14909091AB1FA81F1D0
:106D80004909002BE6D060469847E3E7704700BF0B
:106D9000385D0020705D0020685D0020605D00208F
:106DA0002DE9F84F0646244800F092FBD8B9234F4E
:106DB0000123A6F1200103FA01FBC6F12002D7E965
:106DC000000123FA02F24BEA020B03FA06FA00EA88
:106DD0000A0201EA0B03134307D020EA0A0421EA5E
:106DE0000B05C7E90045BDE8F88F304600F020FFED
:106DF000134ED6E90089C8B148EA0A0349EA0B04F0
:106E00009846A146D7E900234BEA03050D4B0A48F3
:106E100019684AEA02044B464246C6E90023C7E91C
:106E200000450022BDE8F84F00F0FCBA28EA0A0845
:106E300029EA0B09E6E700BF405D0020685D0020FD
:106E4000605D00203C5D0020042A36D92DE9F04128
:106E500082B00E460546144600F0DCFD002836D010
:106E60001D491E4A1E4B0D601E481F491C601670AE
:106E700000230022741EC0E90023C1E90023E4B20C
:106E8000EEB105EBC404194F083D4FF0000803268E
:106E900001E0AC4213D0A37820788DF806803A4602
:106EA00001A98DF804608DF8053000F0BDFD083CA7
:106EB0000028EED002B0BDE8F081072070470C4AF0
:106EC0000C48002100F09CFA02B0BDE8F08100F00F
:106ED0005DFD0028C4D0EDE7705D0020385D002026
:106EE0003C5D0020605D0020685D0020A16D020017
:106EF000816C02003C83020070B5084D2B785BB1B9
:106F0000074E00243368012113F8340000F02EFEF0
:106F10002B780134A342F5D8002070BD385D0020E5
:106F2000705D0020F8B5204A204B0024C2F8404193
:106F3000C2F84441C2F84841C2F84C41C2F800418D
:106F4000C2F804411B6833B31949D2F804550A68E2
:106F5000AD1A1A6825F07F45AA4227460DD8197C3C
:106F6000DE69AD1A144419B11F74D3E905209047A6
:106F70001EB133461A68AA42F1D90E490E4A0B785F
:106F800012789A4208D00D490D4A41F823404FF437
:106F90008013C2F80031F8BD531CDBB2022B08BFCE
:106FA00000230B70EFE700BF00100140945E00204B
:106FB000905E00208D5E00208C5E0020845E0020AC
:106FC00000E100E02DE9F04F8C4A8D4913780978F3
:106FD000DFF85082994285B0D8F800A000F07B819C
:106FE0000133DBB2022B08BF002386481370864AA8
:106FF000076852F823107B1823F07F4300240360B6
:10700000534626462046A446ABB11A688A4200F28F
:107010006581DC68C3F800C0891A1044DA6934B1AC
:107020003D1825F07F45C3E90154DE611E46134635
:107030000124002BE9D1002C40F07C810123009336
:10704000724B734FDFF8E09143F001030193554613
:107050004FF0000B46B3D6E901C13446F669694BDF
:107060006C481A68ACEB020323F07F43834248D894
:107070000B44236000220121C4E90122E261217452
:10708000002D5DD02A689A424DD2284603E00A6856
:107090009A424FD20846C1699B1A0029F7D1236052
:1070A000E161C461002ED6D178783978884264D005
:1070B0000B4603EB43034C1CBA7807EBC303E1B266
:1070C0008A421A79397004BF00213970022A9C68FB
:1070D00044D0032A38D0012AE8D1227C002AE5D105
:1070E000D3F80CC0C4F804C01969A1605869E06005
:1070F00099F800009B69A3610028B0D062609446B3
:10710000ADE7A2EB0C0222F07F428A4202D28B1A38
:107110002360AFE700230122C4E90033A360E361E9
:1071200022746DB12A68C8F80040D31A2B60E5615B
:1071300025468FE7D21A0A602360E161C461B1E796
:10714000C8F80040254685E7002DAFD000232B74FA
:10715000ED69002DFBD1C8F80050A5E74DB1AC4258
:107160002B4603D1E4E094422FD01346DA69002A7B
:10717000F9D10023237488429AD1BBF1000F01D1C9
:10718000554553D0002D56D1234E244A1F4C4FF461
:1071900080334FF400310127C2F880103C43C6F819
:1071A00048334FF43C60C6F808337760A047154B6E
:1071B000B7604FF43C601D60A047194B1D70002361
:1071C00089F8003005B0BDE8F08FA34200F091804F
:1071D000E0692168D861002800F086802A460368AB
:1071E0000B440360AA424FF0000339787878237487
:1071F0001CBF15464FF0010BBDE700BF8C5E0020A1
:107200008D5E0020905E0020845E0020408302009E
:10721000745D0020FEFF7F000010014000E100E0EF
:10722000815E0020945E0020805E0020009B002B89
:10723000C5D0002DA8D0434B434A1C68D2F8046542
:10724000424FD5F800A03978331B23F07F43DD1C73
:10725000B9B93F493F4B4FF48030C2F844034FF077
:107260000108C2F804034FF40030C1F8800143F074
:1072700001030860C2F800804FF43C60984787F82B
:107280000080AA452CBF04EB0A0363192E4923F0A2
:107290007F43C1F84035D1F80425921B9B1B22F097
:1072A0007F4223F07F4303329A4288D9294BD1F899
:1072B0000425C1F8402543F001034FF43C60984792
:1072C000234B4FF40032C3F80021002389F800302B
:1072D00005B0BDE8F08F00260096B1E674BB521AE7
:1072E0001A6001230093ABE6002339787878237481
:1072F00041E71946EA69C8F8002092B9CDE90231A0
:10730000114BDFF840C001209860019B89F8000014
:10731000CCF800204FF43C609847DDE90231D8F802
:107320000020C8690968D86100287FF458AF59E780
:107330002946DFE7C8F800309A467FE6C8F80030F3
:107340009A46CCE7905E002000100140815E00204C
:1073500000E100E0408302002DE9F8431F4D204E7C
:10736000204FDFF898804FF480334FF400324FF015
:1073700001090024C6F8802047EA0907C5F8483308
:107380004FF43C60C5F80833C5F80490B847C5F819
:1073900008904FF43C60C8F80040B847124A134BBD
:1073A00013491C601470134B134A0C700B2114709A
:1073B0001C8099704FF48012C023C6F8802186F893
:1073C00014333260C5F8084586F81133D5F8043512
:1073D000C8F800302046BDE8F88300BF0010014027
:1073E00000E100E040830200815E0020945E002006
:1073F0008C5E0020745D00208D5E0020905E002079
:10740000074B9B784BB132B128B10368187C20B987
:1074100059745A617047072070470820704700BFB1
:10742000745D00202DE9F047264CA37882B0002B34
:107430003CD000283AD004293CD94369002B35D0F0
:10744000814602A899F811300026012B00F8016D41
:107450000CBF8846B04617468A46FFF7A3FA637802
:10746000A17822789DF807005D1CEDB2A94208BF03
:107470003546AA4222D003EB430304EBC3030121A8
:10748000114AC3F808901971D2F804256570C3E950
:10749000032AC3E90587FFF7ABFA0C4B4FF48012C0
:1074A0003046C3F8002102B0BDE8F087082002B0E2
:1074B000BDE8F087072002B0BDE8F087FFF798FA33
:1074C0000420F0E7745D00200010014000E100E0BE
:1074D000F0B51A4CA37883B043B338B343692BB3E8
:1074E000064602A8002500F8015D3574FFF75AFA38
:1074F0006278A77821789DF80700531CDBB29F4281
:1075000008BF2B46994214D002EB420204EBC202A0
:107510000221966011716370FFF76AFA084B4FF40D
:1075200080122846C3F8002103B0F0BD082003B044
:10753000F0BDFFF75DFA0420F9E700BF745D00209D
:1075400000E100E0014B1878704700BF985E002012
:1075500000B583B068460849FFF77CFB019B43B147
:10756000D3E9002090476846FFF77EFB019B002B84
:10757000F6D103B05DF804FB488302004BDF70478F
:1075800010B5114C84B001A8FFF7F8FFA8B9214647
:1075900002A8FFF75FFB039B002BF4D0D3E9002187
:1075A0000198904702A8FFF75FFB039B002BF5D1E2
:1075B00001A8FFF7E3FF0028E9D0052801D0FFF775
:1075C000A9F904B010BD00BF5C83020030B4904B39
:1075D0001B78062B20D08F4B1B68062B00F0858074
:1075E0008D4AD2F8883043F47003C2F88830BFF374
:1075F0004F8FBFF36F8F4FF01023D3F80022002A74
:10760000C0F28681D3F80432002BC0F28181834B13
:10761000834A1A6030BC7047824B1B681D07DAD161
:10762000814B1B6803F0F002302A00F09E8003F0CB
:10763000E003402B00F099807B4B1B6803F0F003C4
:10764000302B00F0B980784B1B6803F0F002302A31
:1076500056D003F0E003402B52D0734B1B6803F06D
:10766000F003302B00F0B6806F4B1B6803F0F00284
:10767000302A66D003F0E003402B62D06A4B1B68CF
:1076800003F0F003302B00F0B580674B1B6803F06C
:10769000F003302B79D0644B1B6803F0F003502BC0
:1076A00000F0E480604B1B6803F0F002302A37D012
:1076B00003F0E003402B33D05B4B1B6803F0F00278
:1076C000302A03D003F0E003402B84D14FF08043F5
:1076D000D3F80024D20744BF6FF00102C3F800249E
:1076E0004C4B1B68062B7FF47BAF504B1B68062B63
:1076F0007FF476AF4E4A136843F4806313606FE7FC
:107700004C4B434A1B6812784B49C3F34233062A59
:107710000B6048D1434B1B6819077FF45CAF9CE7B3
:10772000464A3B4B12681B78454902F04F02062B34
:107730000A607FF450AF3B4B1B6819077FF44BAFD7
:10774000BAE74FF080430022C3F80C21C3F81021A0
:10775000C3F838252E4B1B78062B7FF43CAF314BFA
:107760001B681B077FF437AF88E7364B284A1B6836
:1077700012783549C3F30423062A0B60EAD1294B5A
:107780001B681C077FF427AF56E7304C204A30496E
:1077900012783048304B0525256001250D60002406
:1077A0003F2104601960062A7FF415AF1D4B1B684A
:1077B0001C077FF410AF6EE7154B284A1B78284949
:1077C0001160062B7FF407AF164B1B6818077FF478
:1077D00002AF38E723490E4BCA681B7822F080724B
:1077E000062BCA607FF4F7AE0E4B1B681A077FF4B6
:1077F000F2AE39E7064B1C4A1B780321062B1160B9
:107800007FF4E9AE074B1B681D077FF4E4AE3CE74D
:10781000E00F00F03001001000ED00E0B85700204C
:107820000090D003E40F00F0E80F00F034010010E6
:107830003C170040440200103C0500405802001074
:10784000E40E004024030010403501401056004073
:1078500088560040185600401456004074C0074037
:107860000DF0ADBAF0ED00E0A00500404FF0805300
:10787000404AD3F80414C2F82015D3F80814C2F80B
:107880002415D3F80C14C2F82815D3F81014C2F834
:107890002C15D3F81414C2F83015D3F81814C2F804
:1078A0003415D3F81C14C2F84015D3F82014C2F8CC
:1078B0004415D3F82414C2F84815D3F82814C2F894
:1078C0004C15D3F82C14C2F85015D3F83014C2F864
:1078D0005415D3F83414C2F86015D3F83814C2F82C
:1078E0006415D3F83C14C2F86815D3F84014224844
:1078F000C2F86C15D3F844140378C2F87015062B3F
:107900007FF469AE1D4B1B6818077FF464AEC9E6AF
:107910001B4B0122C3F80425D3F80024002AFBD016
:107920004FF0102315221649C3F80022D1F8003475
:10793000002BFBD04FF010221521114BC2F804127E
:10794000D3F80024002AFBD000220D49C3F80425F7
:10795000D1F80034002BFBD0BFF34F8F09490A4BFD
:10796000CA6802F4E0621343CB60BFF34F8F00BFDD
:10797000FDE700BF00C00040E00F00F0E40F00F0A2
:1079800000E0014000ED00E00400FA0570B51D4C78
:1079900094F8495082B095BB4FF0FF33294604223A
:1079A00004F14500C4E90933C4E90B33C4E90D33DC
:1079B000C4E90F33C4E90033C4E90233C4E9043332
:1079C000C4E90633236284F8443000F07EFC0E4B99
:1079D0000E4A0F4E1560C02183F806134021C3F8EC
:1079E000801119601368019301994FF0004301223F
:1079F000284684F84920C6F8043302B070BD082038
:107A000002B070BD9C5E002000E100E07C6100409F
:107A100000600040034B93F84900003018BF01207C
:107A2000704700BF9C5E0020F0B44E4B1D1895F9C6
:107A30002440002C24DA8C78C4F34004D4B11E68AE
:107A4000013600F08A805D6801351CD09D680135E3
:107A500079D0DD68013578D01D69013577D05D6951
:107A6000013576D09D69013575D0DD69013504D1C8
:107A7000072509E01C6A013452D00420F0BC70478D
:107A80000820F0BC704701251F186EB243F825206E
:107A900087F82460002C49D08A78540715D4D5077C
:107AA00048D5820002F1A042D2F8004724F0020437
:107AB000C2F800472C4DC40800F0070C2F5D0122CE
:107AC00002FA0CF23A432A558A780C7812F0020234
:107AD0000AD1083E3344104693F8442042EA841405
:107AE00083F84440F0BC7047B30003F1804303F5D2
:107AF000C0430202D3F8101521F4473121F440713C
:107B0000C3F81015240404F44034D3F8101502F41B
:107B1000F85222430A43C3F810250020F0BC7047F6
:107B2000082485F824401A62264625461D4485F817
:107B30003C00B1E74C784FF0A04500F5E072A4009E
:107B400045F82240B6E702259EE703259CE7042579
:107B50009AE7052598E7062596E700261A6085F836
:107B6000246099E79C5E0020E15E002070B42E4DF9
:107B70002E1883B096F92430072B1CDD2B4493F884
:107B80003C309B09032B41D0012B14BF4FF44031F3
:107B90004FF40031800000F1A040D0F8002722F41B
:107BA0004032C0F80027D0F800370B43C0F8003748
:107BB00003B070BC7047DAB2072AF9D8980000F118
:107BC000804000F5C04003F14002D0F8104592001B
:107BD00092B244F0010402F18042C0F8104502F56F
:107BE000C04200200190019C10600029E0D096F96D
:107BF000242055F82220002ADAD001220B4902FA6B
:107C000003F3C1F8043303B070BC70474FF0A043D6
:107C1000D3F81035C34013F0010F0CBF4FF40031FF
:107C20004FF44031B6E700BF9C5E0020006000408A
:107C30004FF0A043D3F8103523FA00F000F0010014
:107C4000704700BF2DE9F04186B00023AE4A019392
:107C50001768012F00F0B7801F46AC4B1A68012A45
:107C600000F0C080AA4B1A68012A00F0CD80A94B11
:107C70001A68012A00F0DA80A74B1A68012A00F07E
:107C8000E780A64B1A68012A00F0F480A44B1A681A
:107C9000012A00F00181A34B1A68012A0CD0A24BE3
:107CA0001B68012B00F0088117F0FF0F15D1002F82
:107CB00030DB06B0BDE8F0819C4AD2F804231206FE
:107CC000EDD500221A601A6804926033049A1B688A
:107CD000012B47F0800700F0EF80954D002401262E
:107CE000A30003F180433E4203F5C0434FEA46063A
:107CF0000BD0D3F8100555F82420D3F81015C0F395
:107D00000420C1F3014102B190470134082CE7D1AE
:107D1000002FCEDA00224FF0FF33CDE90223844C4E
:107D2000012502AE94F94430D9B2013321F0C000EC
:107D3000BFD006AB4FEAD00C03EB0C0701F00703F2
:107D400017F80C2C05FA03F31A42B2D0221889094D
:107D500092F9242054F82280B8F1000F00F0CB8073
:107D6000032900F0CB80820002F1A04217F814CC66
:107D7000D2F800771CEA030FC7F3014740F0AA804E
:107D8000032F96D1032940F0AA804FF40033D2F894
:107D9000001721F44031C2F80017D2F800170B4346
:107DA000C2F80037B8F1000F01D00321C0474FF0EF
:107DB000A043019AD3F8103593423FF47AAF029A68
:107DC00001930392AEE75949D1F8041311F0010170
:107DD00070D0136013680493049B4C4B1A68012AFB
:107DE0007FF440AF514AD2F8042392077FF53AAFAF
:107DF00000221A601B680493049B454B1A68012AF1
:107E000047F002077FF433AF484AD2F804235607FD
:107E10007FF52DAF00221A601B680493049B3D4B35
:107E20001A68012A47F004077FF426AF3F4AD2F8C8
:107E3000042315077FF520AF00221A601B68049306
:107E4000049B354B1A68012A47F008077FF419AFE5
:107E5000364AD2F80423D4067FF513AF00221A6005
:107E60001B680493049B2D4B1A68012A47F01007E6
:107E70007FF40CAF2D4AD2F8042390067FF506AFAD
:107E800000221A601B680493049B254B1A68012A80
:107E900047F020077FF4FFAE244AD2F804235106AE
:107EA0007FF5F9AE00221A601B680493049B47F02B
:107EB0004007F0E60F46D0E61B4B00221A601B6815
:107EC00005934FF0A043059AD3F81035019347F07E
:107ED0000047E9E6022F7FF4ECAE032908D0B8F1A1
:107EE000000F3FF4E6AE434606B0BDE8F041184748
:107EF0004FF440334BE703297FF4DBAE16F80C2038
:107F00001A4306F80C202EE700610040046100408F
:107F1000086100400C6100401061004014610040A5
:107F2000186100401C6100407C610040006000401E
:107F30009C5E0020054A13792BB901211060537112
:107F40001846117170478520704700BFE85E002019
:107F5000084B1A68D20706D40122C02183F8001307
:107F6000C3F880211A604FF080430122C3F818251E
:107F7000704700BF00E100E010B41349134B144AEE
:107F80000020086083B0096801914FF08041022011
:107F9000019CC1F80403D86840F08071D96014686E
:107FA00044F001031360516853685B1AB3F50A5F2C
:107FB000FAD30649074B14600122C8601A6003B067
:107FC0005DF8044B704700BF04010040F0ED00E095
:107FD000001000E008000040044B01221A604FF03E
:107FE0008042D2F81834DB03FBD470470C00004009
:107FF00010B5154B1A6882B07AB10021134A196086
:108000001B68507900934FF080410123009CC1F818
:10801000083310B91168537188470D4B1A6882B143
:1080200000221A601B6801934FF080420221074B27
:108030000198C2F808131B68012002B0BDE8104087
:10804000184702B010BD00BF00010040E85E0020EC
:10805000040100400649074A074B9B1A03DD043B15
:10806000C858D050FBDCFFF7B1FAFEF7E9F8000082
:10807000F8830200B857002028580020FEE7FEE7EA
:10808000FEE7FEE7FEE7FEE7FEE7FEE7FEE7FEE7C8
:1080900010B570B101280BD10D4C2369A0703BB114
:1080A000D3E900230120226198472369002BF7D1EF
:1080B00010BD074CA36801226270002BF8D0D3E9F1
:1080C00000230020A2609847A368002BF7D1EFE7B8
:1080D000F05E002070B910B5074CA36801226270F1
:1080E0003BB1D3E900230020A2609847A368002B8E
:1080F000F7D110BD704700BFF05E002030B50128F9
:1081000083B01CD015D3032811D1FFF721FF02A89B
:1081100000231F4C00F8013DFEF744FCE368013BDF
:10812000E360E56865B39DF80700FEF761FC03B006
:1081300030BD184B0122C3F8802003B030BD02A827
:108140000023134C00F8013DFEF72CFC237853B1BB
:10815000E3689DF8070001330122E360A270FEF797
:1081600047FC03B030BD0C486360A3602361E3604B
:10817000FFF7E0FEFFF7E6F930B101232370E7E7F0
:10818000FFF72AFFA570CEE7FFF7E2FEF5E700BF95
:10819000F05E002000E100E09180020038B50C4C58
:1081A000237873B90B486360A3602361E360FFF732
:1081B000C1FE0546FFF7C6F930B1012323702846FA
:1081C00038BD8525284638BDFFF7C2FEF5E700BF5C
:1081D000F05E00209180020030B5194CA37883B086
:1081E000054693B110B143680120984702A80023C7
:1081F00000F8013DFEF7D6FBE3689DF80700013368
:10820000E360FEF7F5FB03B030BD02A803F0FF0208
:1082100000F8012DFEF7C6FB65B1226942B1954217
:1082200008D0134601E09D4204D01B68002BFAD110
:108230002A602561E368002BDED1FFF79DFEDBE7B6
:10824000F05E002008B5074B044613B10021AFF3E0
:108250000080054B1868836A03B19847204600F0F8
:108260003DF800BF000000008C83020070B50D4E89
:108270000D4CA41BA4100025A54209D10B4E0C4C9B
:1082800000F02EF8A41BA4100025A54205D170BD56
:1082900056F8253098470135EEE756F825309847CF
:1082A0000135F2E71C5800201C5800201C58002003
:1082B0002058002010B5431E0A44914200D110BD41
:1082C00011F8014B03F8014FF7E7024403469342CC
:1082D00000D1704703F8011BF9E70000FEE700BF7B
:1082E000F8B500BFF8BC08BC9E467047F8B500BFA3
:1082F000F8BC08BC9E46704704000300B56202004B
:108300000338FDD8704700004261636B656E64738B
:1083100020666C7573686564000000006170700011
:10832000466174616C206572726F72005379737468
:10833000656D20726573657400000000405D00206B
:108340000338FDD870470000A4830200AC8302000C
:10835000080000006E72665F736468009483020018
:108360009C830200080000006E72665F7364685FA1
:10837000736F63004750494F54450000434C4F43CF
:108380004B000000636C6F636B000000BC57002063
:0483900000000000E9
:08839400D5800200000000008A
:08839C00FD800200000000005A
:0883A4008175020000000000D9
:1083AC007C830200000000007483020000000000C7
:1083BC001C83020000000303848302000000000001
:1083CC0054830200000003036883020000000303CF
:1083DC00445800200C590020145900204C580020FF
:0483EC001800000075
:0883F00050DEFF7F01000000D8
:1083F8000090D00300000000000000000000000012
:108408000000000000000000000000000000000064
:108418000000000000000000000000000000000054
:108428000000000000000000000000000000000044
:108438000000000000000000000000000000000034
:108448000000000000000000000000000000000024
:0C8458000000000025620200016202002A
:040000032000805504
:00000001FF
